{
  "_format": "hh-sol-artifact-1",
  "contractName": "CirqaProtocol",
  "sourceName": "contracts/CirqaProtocol.sol",
  "abi": [
    {
      "inputs": [
        {
          "internalType": "address",
          "name": "_cirqaTokenAddress",
          "type": "address"
        }
      ],
      "stateMutability": "nonpayable",
      "type": "constructor"
    },
    {
      "inputs": [
        {
          "internalType": "address",
          "name": "owner",
          "type": "address"
        }
      ],
      "name": "OwnableInvalidOwner",
      "type": "error"
    },
    {
      "inputs": [
        {
          "internalType": "address",
          "name": "account",
          "type": "address"
        }
      ],
      "name": "OwnableUnauthorizedAccount",
      "type": "error"
    },
    {
      "anonymous": false,
      "inputs": [
        {
          "indexed": true,
          "internalType": "address",
          "name": "user",
          "type": "address"
        },
        {
          "indexed": true,
          "internalType": "uint256",
          "name": "pid",
          "type": "uint256"
        },
        {
          "indexed": false,
          "internalType": "uint256",
          "name": "amount",
          "type": "uint256"
        }
      ],
      "name": "Borrow",
      "type": "event"
    },
    {
      "anonymous": false,
      "inputs": [
        {
          "indexed": true,
          "internalType": "address",
          "name": "user",
          "type": "address"
        },
        {
          "indexed": false,
          "internalType": "uint256",
          "name": "amount",
          "type": "uint256"
        }
      ],
      "name": "Claim",
      "type": "event"
    },
    {
      "anonymous": false,
      "inputs": [
        {
          "indexed": true,
          "internalType": "address",
          "name": "previousOwner",
          "type": "address"
        },
        {
          "indexed": true,
          "internalType": "address",
          "name": "newOwner",
          "type": "address"
        }
      ],
      "name": "OwnershipTransferred",
      "type": "event"
    },
    {
      "anonymous": false,
      "inputs": [
        {
          "indexed": true,
          "internalType": "address",
          "name": "asset",
          "type": "address"
        },
        {
          "indexed": true,
          "internalType": "address",
          "name": "user",
          "type": "address"
        },
        {
          "indexed": false,
          "internalType": "uint256",
          "name": "feeAmount",
          "type": "uint256"
        }
      ],
      "name": "ProtocolFeePaid",
      "type": "event"
    },
    {
      "anonymous": false,
      "inputs": [
        {
          "indexed": true,
          "internalType": "address",
          "name": "user",
          "type": "address"
        },
        {
          "indexed": true,
          "internalType": "uint256",
          "name": "pid",
          "type": "uint256"
        },
        {
          "indexed": false,
          "internalType": "uint256",
          "name": "amount",
          "type": "uint256"
        }
      ],
      "name": "Repay",
      "type": "event"
    },
    {
      "anonymous": false,
      "inputs": [
        {
          "indexed": true,
          "internalType": "address",
          "name": "user",
          "type": "address"
        },
        {
          "indexed": true,
          "internalType": "uint256",
          "name": "pid",
          "type": "uint256"
        },
        {
          "indexed": false,
          "internalType": "uint256",
          "name": "amount",
          "type": "uint256"
        }
      ],
      "name": "Supply",
      "type": "event"
    },
    {
      "anonymous": false,
      "inputs": [
        {
          "indexed": true,
          "internalType": "address",
          "name": "user",
          "type": "address"
        },
        {
          "indexed": true,
          "internalType": "uint256",
          "name": "pid",
          "type": "uint256"
        },
        {
          "indexed": false,
          "internalType": "uint256",
          "name": "amount",
          "type": "uint256"
        }
      ],
      "name": "Withdraw",
      "type": "event"
    },
    {
      "inputs": [
        {
          "internalType": "uint256",
          "name": "_allocPoint",
          "type": "uint256"
        },
        {
          "internalType": "address",
          "name": "_asset",
          "type": "address"
        },
        {
          "internalType": "bool",
          "name": "_withUpdate",
          "type": "bool"
        }
      ],
      "name": "add",
      "outputs": [],
      "stateMutability": "nonpayable",
      "type": "function"
    },
    {
      "inputs": [
        {
          "internalType": "address",
          "name": "",
          "type": "address"
        }
      ],
      "name": "assetId",
      "outputs": [
        {
          "internalType": "uint256",
          "name": "",
          "type": "uint256"
        }
      ],
      "stateMutability": "view",
      "type": "function"
    },
    {
      "inputs": [
        {
          "internalType": "uint256",
          "name": "",
          "type": "uint256"
        }
      ],
      "name": "assetInfo",
      "outputs": [
        {
          "internalType": "contract IERC20",
          "name": "asset",
          "type": "address"
        },
        {
          "internalType": "uint256",
          "name": "allocPoint",
          "type": "uint256"
        },
        {
          "internalType": "uint256",
          "name": "lastRewardTime",
          "type": "uint256"
        },
        {
          "internalType": "uint256",
          "name": "accCirqaPerShare",
          "type": "uint256"
        },
        {
          "internalType": "uint256",
          "name": "totalPoints",
          "type": "uint256"
        }
      ],
      "stateMutability": "view",
      "type": "function"
    },
    {
      "inputs": [
        {
          "internalType": "address",
          "name": "_asset",
          "type": "address"
        },
        {
          "internalType": "uint256",
          "name": "_amount",
          "type": "uint256"
        }
      ],
      "name": "borrow",
      "outputs": [],
      "stateMutability": "nonpayable",
      "type": "function"
    },
    {
      "inputs": [],
      "name": "cirqaPerSecond",
      "outputs": [
        {
          "internalType": "uint256",
          "name": "",
          "type": "uint256"
        }
      ],
      "stateMutability": "view",
      "type": "function"
    },
    {
      "inputs": [],
      "name": "cirqaToken",
      "outputs": [
        {
          "internalType": "contract ICirqaToken",
          "name": "",
          "type": "address"
        }
      ],
      "stateMutability": "view",
      "type": "function"
    },
    {
      "inputs": [
        {
          "internalType": "uint256",
          "name": "_pid",
          "type": "uint256"
        }
      ],
      "name": "claimReward",
      "outputs": [],
      "stateMutability": "nonpayable",
      "type": "function"
    },
    {
      "inputs": [],
      "name": "massUpdateAssets",
      "outputs": [],
      "stateMutability": "nonpayable",
      "type": "function"
    },
    {
      "inputs": [],
      "name": "owner",
      "outputs": [
        {
          "internalType": "address",
          "name": "",
          "type": "address"
        }
      ],
      "stateMutability": "view",
      "type": "function"
    },
    {
      "inputs": [
        {
          "internalType": "uint256",
          "name": "_pid",
          "type": "uint256"
        },
        {
          "internalType": "address",
          "name": "_user",
          "type": "address"
        }
      ],
      "name": "pendingCirqa",
      "outputs": [
        {
          "internalType": "uint256",
          "name": "",
          "type": "uint256"
        }
      ],
      "stateMutability": "view",
      "type": "function"
    },
    {
      "inputs": [],
      "name": "protocolFeeBps",
      "outputs": [
        {
          "internalType": "uint256",
          "name": "",
          "type": "uint256"
        }
      ],
      "stateMutability": "view",
      "type": "function"
    },
    {
      "inputs": [],
      "name": "protocolFeeRecipient",
      "outputs": [
        {
          "internalType": "address",
          "name": "",
          "type": "address"
        }
      ],
      "stateMutability": "view",
      "type": "function"
    },
    {
      "inputs": [],
      "name": "renounceOwnership",
      "outputs": [],
      "stateMutability": "nonpayable",
      "type": "function"
    },
    {
      "inputs": [
        {
          "internalType": "address",
          "name": "_asset",
          "type": "address"
        },
        {
          "internalType": "uint256",
          "name": "_amount",
          "type": "uint256"
        }
      ],
      "name": "repay",
      "outputs": [],
      "stateMutability": "nonpayable",
      "type": "function"
    },
    {
      "inputs": [
        {
          "internalType": "uint256",
          "name": "_pid",
          "type": "uint256"
        },
        {
          "internalType": "uint256",
          "name": "_allocPoint",
          "type": "uint256"
        },
        {
          "internalType": "bool",
          "name": "_withUpdate",
          "type": "bool"
        }
      ],
      "name": "set",
      "outputs": [],
      "stateMutability": "nonpayable",
      "type": "function"
    },
    {
      "inputs": [
        {
          "internalType": "uint256",
          "name": "_newFeeBps",
          "type": "uint256"
        }
      ],
      "name": "setProtocolFee",
      "outputs": [],
      "stateMutability": "nonpayable",
      "type": "function"
    },
    {
      "inputs": [
        {
          "internalType": "address",
          "name": "_newRecipient",
          "type": "address"
        }
      ],
      "name": "setProtocolFeeRecipient",
      "outputs": [],
      "stateMutability": "nonpayable",
      "type": "function"
    },
    {
      "inputs": [
        {
          "internalType": "address",
          "name": "_asset",
          "type": "address"
        },
        {
          "internalType": "uint256",
          "name": "_amount",
          "type": "uint256"
        }
      ],
      "name": "supply",
      "outputs": [],
      "stateMutability": "nonpayable",
      "type": "function"
    },
    {
      "inputs": [],
      "name": "totalAllocPoint",
      "outputs": [
        {
          "internalType": "uint256",
          "name": "",
          "type": "uint256"
        }
      ],
      "stateMutability": "view",
      "type": "function"
    },
    {
      "inputs": [
        {
          "internalType": "address",
          "name": "newOwner",
          "type": "address"
        }
      ],
      "name": "transferOwnership",
      "outputs": [],
      "stateMutability": "nonpayable",
      "type": "function"
    },
    {
      "inputs": [
        {
          "internalType": "uint256",
          "name": "_pid",
          "type": "uint256"
        }
      ],
      "name": "updateAsset",
      "outputs": [],
      "stateMutability": "nonpayable",
      "type": "function"
    },
    {
      "inputs": [
        {
          "internalType": "uint256",
          "name": "_cirqaPerSecond",
          "type": "uint256"
        }
      ],
      "name": "updateCirqaPerSecond",
      "outputs": [],
      "stateMutability": "nonpayable",
      "type": "function"
    },
    {
      "inputs": [
        {
          "internalType": "uint256",
          "name": "",
          "type": "uint256"
        },
        {
          "internalType": "address",
          "name": "",
          "type": "address"
        }
      ],
      "name": "userInfo",
      "outputs": [
        {
          "internalType": "uint256",
          "name": "points",
          "type": "uint256"
        },
        {
          "internalType": "uint256",
          "name": "rewardDebt",
          "type": "uint256"
        }
      ],
      "stateMutability": "view",
      "type": "function"
    },
    {
      "inputs": [
        {
          "internalType": "address",
          "name": "_asset",
          "type": "address"
        },
        {
          "internalType": "uint256",
          "name": "_amount",
          "type": "uint256"
        }
      ],
      "name": "withdraw",
      "outputs": [],
      "stateMutability": "nonpayable",
      "type": "function"
    }
  ],
  "bytecode": "0x608060405260006005556702315429b2830000600655600060075534801561002657600080fd5b5060405161249f38038061249f8339818101604052810190610048919061027a565b33600073ffffffffffffffffffffffffffffffffffffffff168173ffffffffffffffffffffffffffffffffffffffff16036100bb5760006040517f1e4fbdf70000000000000000000000000000000000000000000000000000000081526004016100b291906102b6565b60405180910390fd5b6100ca8161015360201b60201c565b5080600160006101000a81548173ffffffffffffffffffffffffffffffffffffffff021916908373ffffffffffffffffffffffffffffffffffffffff16021790555033600860006101000a81548173ffffffffffffffffffffffffffffffffffffffff021916908373ffffffffffffffffffffffffffffffffffffffff160217905550506102d1565b60008060009054906101000a900473ffffffffffffffffffffffffffffffffffffffff169050816000806101000a81548173ffffffffffffffffffffffffffffffffffffffff021916908373ffffffffffffffffffffffffffffffffffffffff1602179055508173ffffffffffffffffffffffffffffffffffffffff168173ffffffffffffffffffffffffffffffffffffffff167f8be0079c531659141344cd1fd0a4f28419497f9722a3daafe3b4186f6b6457e060405160405180910390a35050565b600080fd5b600073ffffffffffffffffffffffffffffffffffffffff82169050919050565b60006102478261021c565b9050919050565b6102578161023c565b811461026257600080fd5b50565b6000815190506102748161024e565b92915050565b6000602082840312156102905761028f610217565b5b600061029e84828501610265565b91505092915050565b6102b08161023c565b82525050565b60006020820190506102cb60008301846102a7565b92915050565b6121bf806102e06000396000f3fe608060405234801561001057600080fd5b50600436106101585760003560e01c8063787dce3d116100c3578063ae169a501161007c578063ae169a501461037e578063e521cb921461039a578063f2b9fdb8146103b6578063f2fde38b146103d2578063f3fef3a3146103ee578063fd3f60df1461040a57610158565b8063787dce3d146102a55780638b0678e0146102c15780638ce70ccb146102dd5780638da5cb5b146102fb57806393f1a40b14610319578063a879fcbb1461034a57610158565b8063410e4e9f11610115578063410e4e9f1461020b57806342d8c345146102275780634b8a35291461024557806364482f791461026157806364df049e1461027d578063715018a61461029b57610158565b80630b925dd01461015d57806317caf6f1146101675780631eaaa0451461018557806322867d78146101a15780632629eea2146101bd57806335659fb8146101ed575b600080fd5b61016561043a565b005b61016f610467565b60405161017c91906119af565b60405180910390f35b61019f600480360381019061019a9190611a91565b61046d565b005b6101bb60048036038101906101b69190611ae4565b610649565b005b6101d760048036038101906101d29190611b24565b61088d565b6040516101e491906119af565b60405180910390f35b6101f56109da565b60405161020291906119af565b60405180910390f35b61022560048036038101906102209190611b64565b6109e0565b005b61022f610abb565b60405161023c9190611bf0565b60405180910390f35b61025f600480360381019061025a9190611ae4565b610ae1565b005b61027b60048036038101906102769190611c0b565b610e5a565b005b610285610ee4565b6040516102929190611c6d565b60405180910390f35b6102a3610f0a565b005b6102bf60048036038101906102ba9190611b64565b610f1e565b005b6102db60048036038101906102d69190611b64565b610f75565b005b6102e5610f8f565b6040516102f291906119af565b60405180910390f35b610303610f95565b6040516103109190611c6d565b60405180910390f35b610333600480360381019061032e9190611b24565b610fbe565b604051610341929190611c88565b60405180910390f35b610364600480360381019061035f9190611b64565b610fef565b604051610375959493929190611cd2565b60405180910390f35b61039860048036038101906103939190611b64565b611055565b005b6103b460048036038101906103af9190611d25565b611062565b005b6103d060048036038101906103cb9190611ae4565b61111d565b005b6103ec60048036038101906103e79190611d25565b6112fc565b005b61040860048036038101906104039190611ae4565b611382565b005b610424600480360381019061041f9190611d25565b6115a6565b60405161043191906119af565b60405180910390f35b6000600280549050905060005b8181101561046357610458816109e0565b806001019050610447565b5050565b60055481565b6104756115be565b6000600360008473ffffffffffffffffffffffffffffffffffffffff1673ffffffffffffffffffffffffffffffffffffffff16815260200190815260200160002054146104f7576040517f08c379a00000000000000000000000000000000000000000000000000000000081526004016104ee90611daf565b60405180910390fd5b80156105065761050561043a565b5b6000429050836005546105199190611dfe565b60058190555060026040518060a001604052808573ffffffffffffffffffffffffffffffffffffffff168152602001868152602001838152602001600081526020016000815250908060018154018082558091505060019003906000526020600020906005020160009091909190915060008201518160000160006101000a81548173ffffffffffffffffffffffffffffffffffffffff021916908373ffffffffffffffffffffffffffffffffffffffff160217905550602082015181600101556040820151816002015560608201518160030155608082015181600401555050600280549050600360008573ffffffffffffffffffffffffffffffffffffffff1673ffffffffffffffffffffffffffffffffffffffff1681526020019081526020016000208190555050505050565b60006001600360008573ffffffffffffffffffffffffffffffffffffffff1673ffffffffffffffffffffffffffffffffffffffff168152602001908152602001600020546106979190611e32565b905060006004600083815260200190815260200160002060003373ffffffffffffffffffffffffffffffffffffffff1673ffffffffffffffffffffffffffffffffffffffff16815260200190815260200160002090506000600282600001546107009190611e66565b905083811015610745576040517f08c379a000000000000000000000000000000000000000000000000000000000815260040161073c90611ef4565b60405180910390fd5b60006002856107549190611f43565b83600001546107639190611e32565b9050610770843383611645565b6002848154811061078457610783611f74565b5b906000526020600020906005020160000160009054906101000a900473ffffffffffffffffffffffffffffffffffffffff1673ffffffffffffffffffffffffffffffffffffffff166323b872dd3330886040518463ffffffff1660e01b81526004016107f293929190611fa3565b6020604051808303816000875af1158015610811573d6000803e3d6000fd5b505050506040513d601f19601f820116820180604052508101906108359190611fef565b50833373ffffffffffffffffffffffffffffffffffffffff167f77c6871227e5d2dec8dadd5354f78453203e22e669cd0ec4c19d9a8c5edb31d08760405161087d91906119af565b60405180910390a3505050505050565b600080600284815481106108a4576108a3611f74565b5b9060005260206000209060050201905060006004600086815260200190815260200160002060008573ffffffffffffffffffffffffffffffffffffffff1673ffffffffffffffffffffffffffffffffffffffff168152602001908152602001600020905060008260030154905082600201544211801561092957506000836004015414155b156109a05760008360020154426109409190611e32565b9050600060055485600101546006548461095a9190611e66565b6109649190611e66565b61096e9190611f43565b9050846004015464e8d4a51000826109869190611e66565b6109909190611f43565b8361099b9190611dfe565b925050505b816001015464e8d4a510008284600001546109bb9190611e66565b6109c59190611f43565b6109cf9190611e32565b935050505092915050565b60075481565b6000600282815481106109f6576109f5611f74565b5b9060005260206000209060050201905080600201544211610a175750610ab8565b6000816004015403610a325742816002018190555050610ab8565b6000816002015442610a449190611e32565b90506000600554836001015460065484610a5e9190611e66565b610a689190611e66565b610a729190611f43565b9050826004015464e8d4a5100082610a8a9190611e66565b610a949190611f43565b8360030154610aa39190611dfe565b83600301819055504283600201819055505050505b50565b600160009054906101000a900473ffffffffffffffffffffffffffffffffffffffff1681565b60006001600360008573ffffffffffffffffffffffffffffffffffffffff1673ffffffffffffffffffffffffffffffffffffffff16815260200190815260200160002054610b2f9190611e32565b9050600061271060075484610b449190611e66565b610b4e9190611f43565b905060008184610b5e9190611e32565b90506000821115610cb55760028381548110610b7d57610b7c611f74565b5b906000526020600020906005020160000160009054906101000a900473ffffffffffffffffffffffffffffffffffffffff1673ffffffffffffffffffffffffffffffffffffffff1663a9059cbb600860009054906101000a900473ffffffffffffffffffffffffffffffffffffffff16846040518363ffffffff1660e01b8152600401610c0b92919061201c565b6020604051808303816000875af1158015610c2a573d6000803e3d6000fd5b505050506040513d601f19601f82011682018060405250810190610c4e9190611fef565b503373ffffffffffffffffffffffffffffffffffffffff168573ffffffffffffffffffffffffffffffffffffffff167fec4d26e434f3a30b354b96fd1acf135182f0cf319835c8326a5c8221372fe9df84604051610cac91906119af565b60405180910390a35b60006004600085815260200190815260200160002060003373ffffffffffffffffffffffffffffffffffffffff1673ffffffffffffffffffffffffffffffffffffffff16815260200190815260200160002090506000600286610d189190611f43565b8260000154610d279190611dfe565b9050610d34853383611645565b6000831115610e025760028581548110610d5157610d50611f74565b5b906000526020600020906005020160000160009054906101000a900473ffffffffffffffffffffffffffffffffffffffff1673ffffffffffffffffffffffffffffffffffffffff1663a9059cbb33856040518363ffffffff1660e01b8152600401610dbd92919061201c565b6020604051808303816000875af1158015610ddc573d6000803e3d6000fd5b505050506040513d601f19601f82011682018060405250810190610e009190611fef565b505b843373ffffffffffffffffffffffffffffffffffffffff167fe1979fe4c35e0cef342fef5668e2c8e7a7e9f5d5d1ca8fee0ac6c427fa4153af88604051610e4991906119af565b60405180910390a350505050505050565b610e626115be565b8015610e7157610e7061043a565b5b8160028481548110610e8657610e85611f74565b5b906000526020600020906005020160010154600554610ea59190611e32565b610eaf9190611dfe565b6005819055508160028481548110610eca57610ec9611f74565b5b906000526020600020906005020160010181905550505050565b600860009054906101000a900473ffffffffffffffffffffffffffffffffffffffff1681565b610f126115be565b610f1c6000611728565b565b610f266115be565b6103e8811115610f6b576040517f08c379a0000000000000000000000000000000000000000000000000000000008152600401610f6290612091565b60405180910390fd5b8060078190555050565b610f7d6115be565b610f8561043a565b8060068190555050565b60065481565b60008060009054906101000a900473ffffffffffffffffffffffffffffffffffffffff16905090565b6004602052816000526040600020602052806000526040600020600091509150508060000154908060010154905082565b60028181548110610fff57600080fd5b90600052602060002090600502016000915090508060000160009054906101000a900473ffffffffffffffffffffffffffffffffffffffff16908060010154908060020154908060030154908060040154905085565b61105f81336117ec565b50565b61106a6115be565b600073ffffffffffffffffffffffffffffffffffffffff168173ffffffffffffffffffffffffffffffffffffffff16036110d9576040517f08c379a00000000000000000000000000000000000000000000000000000000081526004016110d0906120fd565b60405180910390fd5b80600860006101000a81548173ffffffffffffffffffffffffffffffffffffffff021916908373ffffffffffffffffffffffffffffffffffffffff16021790555050565b60006001600360008573ffffffffffffffffffffffffffffffffffffffff1673ffffffffffffffffffffffffffffffffffffffff1681526020019081526020016000205461116b9190611e32565b905060006004600083815260200190815260200160002060003373ffffffffffffffffffffffffffffffffffffffff1673ffffffffffffffffffffffffffffffffffffffff168152602001908152602001600020905060008382600001546111d39190611dfe565b90506111e0833383611645565b600283815481106111f4576111f3611f74565b5b906000526020600020906005020160000160009054906101000a900473ffffffffffffffffffffffffffffffffffffffff1673ffffffffffffffffffffffffffffffffffffffff166323b872dd3330876040518463ffffffff1660e01b815260040161126293929190611fa3565b6020604051808303816000875af1158015611281573d6000803e3d6000fd5b505050506040513d601f19601f820116820180604052508101906112a59190611fef565b50823373ffffffffffffffffffffffffffffffffffffffff167f9d624b01705090e0c402c84f2bdef9c498399a009cee9a4e08ab004bae447121866040516112ed91906119af565b60405180910390a35050505050565b6113046115be565b600073ffffffffffffffffffffffffffffffffffffffff168173ffffffffffffffffffffffffffffffffffffffff16036113765760006040517f1e4fbdf700000000000000000000000000000000000000000000000000000000815260040161136d9190611c6d565b60405180910390fd5b61137f81611728565b50565b60006001600360008573ffffffffffffffffffffffffffffffffffffffff1673ffffffffffffffffffffffffffffffffffffffff168152602001908152602001600020546113d09190611e32565b905060006004600083815260200190815260200160002060003373ffffffffffffffffffffffffffffffffffffffff1673ffffffffffffffffffffffffffffffffffffffff1681526020019081526020016000209050828160000154101561146d576040517f08c379a000000000000000000000000000000000000000000000000000000000815260040161146490612169565b60405180910390fd5b600083826000015461147f9190611e32565b905061148c833383611645565b600283815481106114a05761149f611f74565b5b906000526020600020906005020160000160009054906101000a900473ffffffffffffffffffffffffffffffffffffffff1673ffffffffffffffffffffffffffffffffffffffff1663a9059cbb33866040518363ffffffff1660e01b815260040161150c92919061201c565b6020604051808303816000875af115801561152b573d6000803e3d6000fd5b505050506040513d601f19601f8201168201806040525081019061154f9190611fef565b50823373ffffffffffffffffffffffffffffffffffffffff167ff279e6a1f5e320cca91135676d9cb6e44ca8a08c0b88342bcdb1144f6511b5688660405161159791906119af565b60405180910390a35050505050565b60036020528060005260406000206000915090505481565b6115c661198e565b73ffffffffffffffffffffffffffffffffffffffff166115e4610f95565b73ffffffffffffffffffffffffffffffffffffffff16146116435761160761198e565b6040517f118cdaa700000000000000000000000000000000000000000000000000000000815260040161163a9190611c6d565b60405180910390fd5b565b61164f83836117ec565b60006002848154811061166557611664611f74565b5b9060005260206000209060050201905060006004600086815260200190815260200160002060008573ffffffffffffffffffffffffffffffffffffffff1673ffffffffffffffffffffffffffffffffffffffff168152602001908152602001600020905082816000015483600401546116de9190611e32565b6116e89190611dfe565b826004018190555082816000018190555064e8d4a5100082600301548461170f9190611e66565b6117199190611f43565b81600101819055505050505050565b60008060009054906101000a900473ffffffffffffffffffffffffffffffffffffffff169050816000806101000a81548173ffffffffffffffffffffffffffffffffffffffff021916908373ffffffffffffffffffffffffffffffffffffffff1602179055508173ffffffffffffffffffffffffffffffffffffffff168173ffffffffffffffffffffffffffffffffffffffff167f8be0079c531659141344cd1fd0a4f28419497f9722a3daafe3b4186f6b6457e060405160405180910390a35050565b6117f5826109e0565b60006004600084815260200190815260200160002060008373ffffffffffffffffffffffffffffffffffffffff1673ffffffffffffffffffffffffffffffffffffffff16815260200190815260200160002090506000816001015464e8d4a510006002868154811061186a57611869611f74565b5b906000526020600020906005020160030154846000015461188b9190611e66565b6118959190611f43565b61189f9190611e32565b9050600081111561198857600160009054906101000a900473ffffffffffffffffffffffffffffffffffffffff1673ffffffffffffffffffffffffffffffffffffffff166340c10f1984836040518363ffffffff1660e01b815260040161190792919061201c565b600060405180830381600087803b15801561192157600080fd5b505af1158015611935573d6000803e3d6000fd5b505050508273ffffffffffffffffffffffffffffffffffffffff167f47cee97cb7acd717b3c0aa1435d004cd5b3c8c57d70dbceb4e4458bbd60e39d48260405161197f91906119af565b60405180910390a25b50505050565b600033905090565b6000819050919050565b6119a981611996565b82525050565b60006020820190506119c460008301846119a0565b92915050565b600080fd5b6119d881611996565b81146119e357600080fd5b50565b6000813590506119f5816119cf565b92915050565b600073ffffffffffffffffffffffffffffffffffffffff82169050919050565b6000611a26826119fb565b9050919050565b611a3681611a1b565b8114611a4157600080fd5b50565b600081359050611a5381611a2d565b92915050565b60008115159050919050565b611a6e81611a59565b8114611a7957600080fd5b50565b600081359050611a8b81611a65565b92915050565b600080600060608486031215611aaa57611aa96119ca565b5b6000611ab8868287016119e6565b9350506020611ac986828701611a44565b9250506040611ada86828701611a7c565b9150509250925092565b60008060408385031215611afb57611afa6119ca565b5b6000611b0985828601611a44565b9250506020611b1a858286016119e6565b9150509250929050565b60008060408385031215611b3b57611b3a6119ca565b5b6000611b49858286016119e6565b9250506020611b5a85828601611a44565b9150509250929050565b600060208284031215611b7a57611b796119ca565b5b6000611b88848285016119e6565b91505092915050565b6000819050919050565b6000611bb6611bb1611bac846119fb565b611b91565b6119fb565b9050919050565b6000611bc882611b9b565b9050919050565b6000611bda82611bbd565b9050919050565b611bea81611bcf565b82525050565b6000602082019050611c056000830184611be1565b92915050565b600080600060608486031215611c2457611c236119ca565b5b6000611c32868287016119e6565b9350506020611c43868287016119e6565b9250506040611c5486828701611a7c565b9150509250925092565b611c6781611a1b565b82525050565b6000602082019050611c826000830184611c5e565b92915050565b6000604082019050611c9d60008301856119a0565b611caa60208301846119a0565b9392505050565b6000611cbc82611bbd565b9050919050565b611ccc81611cb1565b82525050565b600060a082019050611ce76000830188611cc3565b611cf460208301876119a0565b611d0160408301866119a0565b611d0e60608301856119a0565b611d1b60808301846119a0565b9695505050505050565b600060208284031215611d3b57611d3a6119ca565b5b6000611d4984828501611a44565b91505092915050565b600082825260208201905092915050565b7f417373657420616c72656164792061646465642e000000000000000000000000600082015250565b6000611d99601483611d52565b9150611da482611d63565b602082019050919050565b60006020820190508181036000830152611dc881611d8c565b9050919050565b7f4e487b7100000000000000000000000000000000000000000000000000000000600052601160045260246000fd5b6000611e0982611996565b9150611e1483611996565b9250828201905080821115611e2c57611e2b611dcf565b5b92915050565b6000611e3d82611996565b9150611e4883611996565b9250828203905081811115611e6057611e5f611dcf565b5b92915050565b6000611e7182611996565b9150611e7c83611996565b9250828202611e8a81611996565b91508282048414831517611ea157611ea0611dcf565b5b5092915050565b7f72657061793a206e6f7420676f6f640000000000000000000000000000000000600082015250565b6000611ede600f83611d52565b9150611ee982611ea8565b602082019050919050565b60006020820190508181036000830152611f0d81611ed1565b9050919050565b7f4e487b7100000000000000000000000000000000000000000000000000000000600052601260045260246000fd5b6000611f4e82611996565b9150611f5983611996565b925082611f6957611f68611f14565b5b828204905092915050565b7f4e487b7100000000000000000000000000000000000000000000000000000000600052603260045260246000fd5b6000606082019050611fb86000830186611c5e565b611fc56020830185611c5e565b611fd260408301846119a0565b949350505050565b600081519050611fe981611a65565b92915050565b600060208284031215612005576120046119ca565b5b600061201384828501611fda565b91505092915050565b60006040820190506120316000830185611c5e565b61203e60208301846119a0565b9392505050565b7f4665652063616e6e6f7420657863656564203130250000000000000000000000600082015250565b600061207b601583611d52565b915061208682612045565b602082019050919050565b600060208201905081810360008301526120aa8161206e565b9050919050565b7f496e76616c696420726563697069656e74206164647265737300000000000000600082015250565b60006120e7601983611d52565b91506120f2826120b1565b602082019050919050565b60006020820190508181036000830152612116816120da565b9050919050565b7f77697468647261773a206e6f7420676f6f640000000000000000000000000000600082015250565b6000612153601283611d52565b915061215e8261211d565b602082019050919050565b6000602082019050818103600083015261218281612146565b905091905056fea2646970667358221220d8f5ca3975e71e364529a1b0be8de43f64607e143d52ce60c82b8d628cdd565664736f6c634300081c0033",
  "linkReferences": {},
  "deployedLinkReferences": {}
}