{
  "_format": "hh-sol-artifact-1",
  "contractName": "CirqaToken",
  "sourceName": "contracts/CirqaToken.sol",
  "abi": [
    {
      "inputs": [],
      "stateMutability": "nonpayable",
      "type": "constructor"
    },
    {
      "inputs": [
        {
          "internalType": "address",
          "name": "spender",
          "type": "address"
        },
        {
          "internalType": "uint256",
          "name": "allowance",
          "type": "uint256"
        },
        {
          "internalType": "uint256",
          "name": "needed",
          "type": "uint256"
        }
      ],
      "name": "ERC20InsufficientAllowance",
      "type": "error"
    },
    {
      "inputs": [
        {
          "internalType": "address",
          "name": "sender",
          "type": "address"
        },
        {
          "internalType": "uint256",
          "name": "balance",
          "type": "uint256"
        },
        {
          "internalType": "uint256",
          "name": "needed",
          "type": "uint256"
        }
      ],
      "name": "ERC20InsufficientBalance",
      "type": "error"
    },
    {
      "inputs": [
        {
          "internalType": "address",
          "name": "approver",
          "type": "address"
        }
      ],
      "name": "ERC20InvalidApprover",
      "type": "error"
    },
    {
      "inputs": [
        {
          "internalType": "address",
          "name": "receiver",
          "type": "address"
        }
      ],
      "name": "ERC20InvalidReceiver",
      "type": "error"
    },
    {
      "inputs": [
        {
          "internalType": "address",
          "name": "sender",
          "type": "address"
        }
      ],
      "name": "ERC20InvalidSender",
      "type": "error"
    },
    {
      "inputs": [
        {
          "internalType": "address",
          "name": "spender",
          "type": "address"
        }
      ],
      "name": "ERC20InvalidSpender",
      "type": "error"
    },
    {
      "inputs": [
        {
          "internalType": "address",
          "name": "owner",
          "type": "address"
        }
      ],
      "name": "OwnableInvalidOwner",
      "type": "error"
    },
    {
      "inputs": [
        {
          "internalType": "address",
          "name": "account",
          "type": "address"
        }
      ],
      "name": "OwnableUnauthorizedAccount",
      "type": "error"
    },
    {
      "anonymous": false,
      "inputs": [
        {
          "indexed": true,
          "internalType": "address",
          "name": "owner",
          "type": "address"
        },
        {
          "indexed": true,
          "internalType": "address",
          "name": "spender",
          "type": "address"
        },
        {
          "indexed": false,
          "internalType": "uint256",
          "name": "value",
          "type": "uint256"
        }
      ],
      "name": "Approval",
      "type": "event"
    },
    {
      "anonymous": false,
      "inputs": [
        {
          "indexed": true,
          "internalType": "address",
          "name": "newMinter",
          "type": "address"
        }
      ],
      "name": "MinterChanged",
      "type": "event"
    },
    {
      "anonymous": false,
      "inputs": [
        {
          "indexed": true,
          "internalType": "address",
          "name": "previousOwner",
          "type": "address"
        },
        {
          "indexed": true,
          "internalType": "address",
          "name": "newOwner",
          "type": "address"
        }
      ],
      "name": "OwnershipTransferred",
      "type": "event"
    },
    {
      "anonymous": false,
      "inputs": [
        {
          "indexed": true,
          "internalType": "address",
          "name": "from",
          "type": "address"
        },
        {
          "indexed": true,
          "internalType": "address",
          "name": "to",
          "type": "address"
        },
        {
          "indexed": false,
          "internalType": "uint256",
          "name": "value",
          "type": "uint256"
        }
      ],
      "name": "Transfer",
      "type": "event"
    },
    {
      "inputs": [],
      "name": "MAX_SUPPLY",
      "outputs": [
        {
          "internalType": "uint256",
          "name": "",
          "type": "uint256"
        }
      ],
      "stateMutability": "view",
      "type": "function"
    },
    {
      "inputs": [
        {
          "internalType": "address",
          "name": "owner",
          "type": "address"
        },
        {
          "internalType": "address",
          "name": "spender",
          "type": "address"
        }
      ],
      "name": "allowance",
      "outputs": [
        {
          "internalType": "uint256",
          "name": "",
          "type": "uint256"
        }
      ],
      "stateMutability": "view",
      "type": "function"
    },
    {
      "inputs": [
        {
          "internalType": "address",
          "name": "spender",
          "type": "address"
        },
        {
          "internalType": "uint256",
          "name": "value",
          "type": "uint256"
        }
      ],
      "name": "approve",
      "outputs": [
        {
          "internalType": "bool",
          "name": "",
          "type": "bool"
        }
      ],
      "stateMutability": "nonpayable",
      "type": "function"
    },
    {
      "inputs": [
        {
          "internalType": "address",
          "name": "account",
          "type": "address"
        }
      ],
      "name": "balanceOf",
      "outputs": [
        {
          "internalType": "uint256",
          "name": "",
          "type": "uint256"
        }
      ],
      "stateMutability": "view",
      "type": "function"
    },
    {
      "inputs": [
        {
          "internalType": "uint256",
          "name": "value",
          "type": "uint256"
        }
      ],
      "name": "burn",
      "outputs": [],
      "stateMutability": "nonpayable",
      "type": "function"
    },
    {
      "inputs": [
        {
          "internalType": "address",
          "name": "account",
          "type": "address"
        },
        {
          "internalType": "uint256",
          "name": "value",
          "type": "uint256"
        }
      ],
      "name": "burnFrom",
      "outputs": [],
      "stateMutability": "nonpayable",
      "type": "function"
    },
    {
      "inputs": [],
      "name": "decimals",
      "outputs": [
        {
          "internalType": "uint8",
          "name": "",
          "type": "uint8"
        }
      ],
      "stateMutability": "view",
      "type": "function"
    },
    {
      "inputs": [
        {
          "internalType": "address",
          "name": "to",
          "type": "address"
        },
        {
          "internalType": "uint256",
          "name": "amount",
          "type": "uint256"
        }
      ],
      "name": "mint",
      "outputs": [],
      "stateMutability": "nonpayable",
      "type": "function"
    },
    {
      "inputs": [],
      "name": "minter",
      "outputs": [
        {
          "internalType": "address",
          "name": "",
          "type": "address"
        }
      ],
      "stateMutability": "view",
      "type": "function"
    },
    {
      "inputs": [],
      "name": "name",
      "outputs": [
        {
          "internalType": "string",
          "name": "",
          "type": "string"
        }
      ],
      "stateMutability": "view",
      "type": "function"
    },
    {
      "inputs": [],
      "name": "owner",
      "outputs": [
        {
          "internalType": "address",
          "name": "",
          "type": "address"
        }
      ],
      "stateMutability": "view",
      "type": "function"
    },
    {
      "inputs": [],
      "name": "renounceOwnership",
      "outputs": [],
      "stateMutability": "nonpayable",
      "type": "function"
    },
    {
      "inputs": [
        {
          "internalType": "address",
          "name": "_minter",
          "type": "address"
        }
      ],
      "name": "setMinter",
      "outputs": [],
      "stateMutability": "nonpayable",
      "type": "function"
    },
    {
      "inputs": [],
      "name": "symbol",
      "outputs": [
        {
          "internalType": "string",
          "name": "",
          "type": "string"
        }
      ],
      "stateMutability": "view",
      "type": "function"
    },
    {
      "inputs": [],
      "name": "totalSupply",
      "outputs": [
        {
          "internalType": "uint256",
          "name": "",
          "type": "uint256"
        }
      ],
      "stateMutability": "view",
      "type": "function"
    },
    {
      "inputs": [
        {
          "internalType": "address",
          "name": "to",
          "type": "address"
        },
        {
          "internalType": "uint256",
          "name": "value",
          "type": "uint256"
        }
      ],
      "name": "transfer",
      "outputs": [
        {
          "internalType": "bool",
          "name": "",
          "type": "bool"
        }
      ],
      "stateMutability": "nonpayable",
      "type": "function"
    },
    {
      "inputs": [
        {
          "internalType": "address",
          "name": "from",
          "type": "address"
        },
        {
          "internalType": "address",
          "name": "to",
          "type": "address"
        },
        {
          "internalType": "uint256",
          "name": "value",
          "type": "uint256"
        }
      ],
      "name": "transferFrom",
      "outputs": [
        {
          "internalType": "bool",
          "name": "",
          "type": "bool"
        }
      ],
      "stateMutability": "nonpayable",
      "type": "function"
    },
    {
      "inputs": [
        {
          "internalType": "address",
          "name": "newOwner",
          "type": "address"
        }
      ],
      "name": "transferOwnership",
      "outputs": [],
      "stateMutability": "nonpayable",
      "type": "function"
    }
  ],
  "bytecode": "0x608060405234801561001057600080fd5b50336040518060400160405280600b81526020017f436972716120546f6b656e0000000000000000000000000000000000000000008152506040518060400160405280600581526020017f4349525141000000000000000000000000000000000000000000000000000000815250816003908161008d919061043d565b50806004908161009d919061043d565b505050600073ffffffffffffffffffffffffffffffffffffffff168173ffffffffffffffffffffffffffffffffffffffff16036101125760006040517f1e4fbdf70000000000000000000000000000000000000000000000000000000081526004016101099190610550565b60405180910390fd5b6101218161012760201b60201c565b5061056b565b6000600560009054906101000a900473ffffffffffffffffffffffffffffffffffffffff16905081600560006101000a81548173ffffffffffffffffffffffffffffffffffffffff021916908373ffffffffffffffffffffffffffffffffffffffff1602179055508173ffffffffffffffffffffffffffffffffffffffff168173ffffffffffffffffffffffffffffffffffffffff167f8be0079c531659141344cd1fd0a4f28419497f9722a3daafe3b4186f6b6457e060405160405180910390a35050565b600081519050919050565b7f4e487b7100000000000000000000000000000000000000000000000000000000600052604160045260246000fd5b7f4e487b7100000000000000000000000000000000000000000000000000000000600052602260045260246000fd5b6000600282049050600182168061026e57607f821691505b60208210810361028157610280610227565b5b50919050565b60008190508160005260206000209050919050565b60006020601f8301049050919050565b600082821b905092915050565b6000600883026102e97fffffffffffffffffffffffffffffffffffffffffffffffffffffffffffffffff826102ac565b6102f386836102ac565b95508019841693508086168417925050509392505050565b6000819050919050565b6000819050919050565b600061033a6103356103308461030b565b610315565b61030b565b9050919050565b6000819050919050565b6103548361031f565b61036861036082610341565b8484546102b9565b825550505050565b600090565b61037d610370565b61038881848461034b565b505050565b5b818110156103ac576103a1600082610375565b60018101905061038e565b5050565b601f8211156103f1576103c281610287565b6103cb8461029c565b810160208510156103da578190505b6103ee6103e68561029c565b83018261038d565b50505b505050565b600082821c905092915050565b6000610414600019846008026103f6565b1980831691505092915050565b600061042d8383610403565b9150826002028217905092915050565b610446826101ed565b67ffffffffffffffff81111561045f5761045e6101f8565b5b6104698254610256565b6104748282856103b0565b600060209050601f8311600181146104a75760008415610495578287015190505b61049f8582610421565b865550610507565b601f1984166104b586610287565b60005b828110156104dd578489015182556001820191506020850194506020810190506104b8565b868310156104fa57848901516104f6601f891682610403565b8355505b6001600288020188555050505b505050505050565b600073ffffffffffffffffffffffffffffffffffffffff82169050919050565b600061053a8261050f565b9050919050565b61054a8161052f565b82525050565b60006020820190506105656000830184610541565b92915050565b6115db8061057a6000396000f3fe608060405234801561001057600080fd5b50600436106101165760003560e01c806370a08231116100a257806395d89b411161007157806395d89b41146102bd578063a9059cbb146102db578063dd62ed3e1461030b578063f2fde38b1461033b578063fca3b5aa1461035757610116565b806370a0823114610249578063715018a61461027957806379cc6790146102835780638da5cb5b1461029f57610116565b806323b872dd116100e957806323b872dd146101a5578063313ce567146101d557806332cb6b0c146101f357806340c10f191461021157806342966c681461022d57610116565b806306fdde031461011b5780630754617214610139578063095ea7b31461015757806318160ddd14610187575b600080fd5b610123610373565b604051610130919061112a565b60405180910390f35b610141610405565b60405161014e919061118d565b60405180910390f35b610171600480360381019061016c919061120f565b61042b565b60405161017e919061126a565b60405180910390f35b61018f61044e565b60405161019c9190611294565b60405180910390f35b6101bf60048036038101906101ba91906112af565b610458565b6040516101cc919061126a565b60405180910390f35b6101dd610487565b6040516101ea919061131e565b60405180910390f35b6101fb610490565b6040516102089190611294565b60405180910390f35b61022b6004803603810190610226919061120f565b6104a0565b005b61024760048036038101906102429190611339565b61059f565b005b610263600480360381019061025e9190611366565b6105b3565b6040516102709190611294565b60405180910390f35b6102816105fb565b005b61029d6004803603810190610298919061120f565b61060f565b005b6102a761062f565b6040516102b4919061118d565b60405180910390f35b6102c5610659565b6040516102d2919061112a565b60405180910390f35b6102f560048036038101906102f0919061120f565b6106eb565b604051610302919061126a565b60405180910390f35b61032560048036038101906103209190611393565b61070e565b6040516103329190611294565b60405180910390f35b61035560048036038101906103509190611366565b610795565b005b610371600480360381019061036c9190611366565b61081b565b005b60606003805461038290611402565b80601f01602080910402602001604051908101604052809291908181526020018280546103ae90611402565b80156103fb5780601f106103d0576101008083540402835291602001916103fb565b820191906000526020600020905b8154815290600101906020018083116103de57829003601f168201915b5050505050905090565b600660009054906101000a900473ffffffffffffffffffffffffffffffffffffffff1681565b6000806104366108aa565b90506104438185856108b2565b600191505092915050565b6000600254905090565b6000806104636108aa565b90506104708582856108c4565b61047b858585610959565b60019150509392505050565b60006012905090565b6b204fce5e3e2502611000000081565b600660009054906101000a900473ffffffffffffffffffffffffffffffffffffffff1673ffffffffffffffffffffffffffffffffffffffff163373ffffffffffffffffffffffffffffffffffffffff1614610530576040517f08c379a00000000000000000000000000000000000000000000000000000000081526004016105279061147f565b60405180910390fd5b6b204fce5e3e250261100000008161054661044e565b61055091906114ce565b1115610591576040517f08c379a00000000000000000000000000000000000000000000000000000000081526004016105889061154e565b60405180910390fd5b61059b8282610a4d565b5050565b6105b06105aa6108aa565b82610acf565b50565b60008060008373ffffffffffffffffffffffffffffffffffffffff1673ffffffffffffffffffffffffffffffffffffffff168152602001908152602001600020549050919050565b610603610b51565b61060d6000610bd8565b565b6106218261061b6108aa565b836108c4565b61062b8282610acf565b5050565b6000600560009054906101000a900473ffffffffffffffffffffffffffffffffffffffff16905090565b60606004805461066890611402565b80601f016020809104026020016040519081016040528092919081815260200182805461069490611402565b80156106e15780601f106106b6576101008083540402835291602001916106e1565b820191906000526020600020905b8154815290600101906020018083116106c457829003601f168201915b5050505050905090565b6000806106f66108aa565b9050610703818585610959565b600191505092915050565b6000600160008473ffffffffffffffffffffffffffffffffffffffff1673ffffffffffffffffffffffffffffffffffffffff16815260200190815260200160002060008373ffffffffffffffffffffffffffffffffffffffff1673ffffffffffffffffffffffffffffffffffffffff16815260200190815260200160002054905092915050565b61079d610b51565b600073ffffffffffffffffffffffffffffffffffffffff168173ffffffffffffffffffffffffffffffffffffffff160361080f5760006040517f1e4fbdf7000000000000000000000000000000000000000000000000000000008152600401610806919061118d565b60405180910390fd5b61081881610bd8565b50565b610823610b51565b80600660006101000a81548173ffffffffffffffffffffffffffffffffffffffff021916908373ffffffffffffffffffffffffffffffffffffffff1602179055508073ffffffffffffffffffffffffffffffffffffffff167fb6b8f1859c5c352e5ffad07d0f77e384ac725512c015bd3a3ffc885831c8a42560405160405180910390a250565b600033905090565b6108bf8383836001610c9e565b505050565b60006108d0848461070e565b90507fffffffffffffffffffffffffffffffffffffffffffffffffffffffffffffffff8110156109535781811015610943578281836040517ffb8f41b200000000000000000000000000000000000000000000000000000000815260040161093a9392919061156e565b60405180910390fd5b61095284848484036000610c9e565b5b50505050565b600073ffffffffffffffffffffffffffffffffffffffff168373ffffffffffffffffffffffffffffffffffffffff16036109cb5760006040517f96c6fd1e0000000000000000000000000000000000000000000000000000000081526004016109c2919061118d565b60405180910390fd5b600073ffffffffffffffffffffffffffffffffffffffff168273ffffffffffffffffffffffffffffffffffffffff1603610a3d5760006040517fec442f05000000000000000000000000000000000000000000000000000000008152600401610a34919061118d565b60405180910390fd5b610a48838383610e75565b505050565b600073ffffffffffffffffffffffffffffffffffffffff168273ffffffffffffffffffffffffffffffffffffffff1603610abf5760006040517fec442f05000000000000000000000000000000000000000000000000000000008152600401610ab6919061118d565b60405180910390fd5b610acb60008383610e75565b5050565b600073ffffffffffffffffffffffffffffffffffffffff168273ffffffffffffffffffffffffffffffffffffffff1603610b415760006040517f96c6fd1e000000000000000000000000000000000000000000000000000000008152600401610b38919061118d565b60405180910390fd5b610b4d82600083610e75565b5050565b610b596108aa565b73ffffffffffffffffffffffffffffffffffffffff16610b7761062f565b73ffffffffffffffffffffffffffffffffffffffff1614610bd657610b9a6108aa565b6040517f118cdaa7000000000000000000000000000000000000000000000000000000008152600401610bcd919061118d565b60405180910390fd5b565b6000600560009054906101000a900473ffffffffffffffffffffffffffffffffffffffff16905081600560006101000a81548173ffffffffffffffffffffffffffffffffffffffff021916908373ffffffffffffffffffffffffffffffffffffffff1602179055508173ffffffffffffffffffffffffffffffffffffffff168173ffffffffffffffffffffffffffffffffffffffff167f8be0079c531659141344cd1fd0a4f28419497f9722a3daafe3b4186f6b6457e060405160405180910390a35050565b600073ffffffffffffffffffffffffffffffffffffffff168473ffffffffffffffffffffffffffffffffffffffff1603610d105760006040517fe602df05000000000000000000000000000000000000000000000000000000008152600401610d07919061118d565b60405180910390fd5b600073ffffffffffffffffffffffffffffffffffffffff168373ffffffffffffffffffffffffffffffffffffffff1603610d825760006040517f94280d62000000000000000000000000000000000000000000000000000000008152600401610d79919061118d565b60405180910390fd5b81600160008673ffffffffffffffffffffffffffffffffffffffff1673ffffffffffffffffffffffffffffffffffffffff16815260200190815260200160002060008573ffffffffffffffffffffffffffffffffffffffff1673ffffffffffffffffffffffffffffffffffffffff168152602001908152602001600020819055508015610e6f578273ffffffffffffffffffffffffffffffffffffffff168473ffffffffffffffffffffffffffffffffffffffff167f8c5be1e5ebec7d5bd14f71427d1e84f3dd0314c0f7b2291e5b200ac8c7c3b92584604051610e669190611294565b60405180910390a35b50505050565b600073ffffffffffffffffffffffffffffffffffffffff168373ffffffffffffffffffffffffffffffffffffffff1603610ec7578060026000828254610ebb91906114ce565b92505081905550610f9a565b60008060008573ffffffffffffffffffffffffffffffffffffffff1673ffffffffffffffffffffffffffffffffffffffff16815260200190815260200160002054905081811015610f53578381836040517fe450d38c000000000000000000000000000000000000000000000000000000008152600401610f4a9392919061156e565b60405180910390fd5b8181036000808673ffffffffffffffffffffffffffffffffffffffff1673ffffffffffffffffffffffffffffffffffffffff16815260200190815260200160002081905550505b600073ffffffffffffffffffffffffffffffffffffffff168273ffffffffffffffffffffffffffffffffffffffff1603610fe35780600260008282540392505081905550611030565b806000808473ffffffffffffffffffffffffffffffffffffffff1673ffffffffffffffffffffffffffffffffffffffff168152602001908152602001600020600082825401925050819055505b8173ffffffffffffffffffffffffffffffffffffffff168373ffffffffffffffffffffffffffffffffffffffff167fddf252ad1be2c89b69c2b068fc378daa952ba7f163c4a11628f55a4df523b3ef8360405161108d9190611294565b60405180910390a3505050565b600081519050919050565b600082825260208201905092915050565b60005b838110156110d45780820151818401526020810190506110b9565b60008484015250505050565b6000601f19601f8301169050919050565b60006110fc8261109a565b61110681856110a5565b93506111168185602086016110b6565b61111f816110e0565b840191505092915050565b6000602082019050818103600083015261114481846110f1565b905092915050565b600073ffffffffffffffffffffffffffffffffffffffff82169050919050565b60006111778261114c565b9050919050565b6111878161116c565b82525050565b60006020820190506111a2600083018461117e565b92915050565b600080fd5b6111b68161116c565b81146111c157600080fd5b50565b6000813590506111d3816111ad565b92915050565b6000819050919050565b6111ec816111d9565b81146111f757600080fd5b50565b600081359050611209816111e3565b92915050565b60008060408385031215611226576112256111a8565b5b6000611234858286016111c4565b9250506020611245858286016111fa565b9150509250929050565b60008115159050919050565b6112648161124f565b82525050565b600060208201905061127f600083018461125b565b92915050565b61128e816111d9565b82525050565b60006020820190506112a96000830184611285565b92915050565b6000806000606084860312156112c8576112c76111a8565b5b60006112d6868287016111c4565b93505060206112e7868287016111c4565b92505060406112f8868287016111fa565b9150509250925092565b600060ff82169050919050565b61131881611302565b82525050565b6000602082019050611333600083018461130f565b92915050565b60006020828403121561134f5761134e6111a8565b5b600061135d848285016111fa565b91505092915050565b60006020828403121561137c5761137b6111a8565b5b600061138a848285016111c4565b91505092915050565b600080604083850312156113aa576113a96111a8565b5b60006113b8858286016111c4565b92505060206113c9858286016111c4565b9150509250929050565b7f4e487b7100000000000000000000000000000000000000000000000000000000600052602260045260246000fd5b6000600282049050600182168061141a57607f821691505b60208210810361142d5761142c6113d3565b5b50919050565b7f4f6e6c7920746865206d696e7465722063616e206d696e7420746f6b656e7300600082015250565b6000611469601f836110a5565b915061147482611433565b602082019050919050565b600060208201905081810360008301526114988161145c565b9050919050565b7f4e487b7100000000000000000000000000000000000000000000000000000000600052601160045260246000fd5b60006114d9826111d9565b91506114e4836111d9565b92508282019050808211156114fc576114fb61149f565b5b92915050565b7f45786365656473206d617820737570706c790000000000000000000000000000600082015250565b60006115386012836110a5565b915061154382611502565b602082019050919050565b600060208201905081810360008301526115678161152b565b9050919050565b6000606082019050611583600083018661117e565b6115906020830185611285565b61159d6040830184611285565b94935050505056fea26469706673582212201172a3b2dce0321cc4c91abfd04db60cd370e802f9893de93d3cf5193e55f2f464736f6c634300081c0033",
  "linkReferences": {},
  "deployedLinkReferences": {}
}